:100000001DC1000037C1000035C1000033C1000030
:1000100031C100002FC100002DC100002BC1000024
:1000200029C1000027C1000025C100000C94A30CC9
:1000300021C100001FC100001DC100001BC1000044
:1000400019C1000017C1000015C1000013C1000054
:1000500011C1000091C600000DC100000BC10000DD
:1000600009C1000007C1000005C1000003C1000074
:1000700001C100000C0D0E0F08090A0B040506074C
:1000800000010203000405060708090A0B0C0D0E07
:10009000101112131415161718191A1B1C1D1E20E7
:1000A000212223242627292A2B001C0100001905C0
:1000B000000018090000141200011D0200021E03B6
:1000C00000031F0401042F0006051A060006150789
:1000D00000071608030826000809280A000A190B59
:1000E000000B290C000B1A06000C1A0D000D2A0E2D
:1000F000000E1A0F000F2A1000101B1104112B0004
:1001000009122413001314140014241500151C16CE
:1001100000162C1700171C1800182C190019181A93
:10012000001A281B001A1A06001B191C001C291D86
:10013000001D181E001E281F001F1920001F1A0D69
:100140000020292100211B220021190B00222B2332
:1001500000231A2405242A000A12011001000000BD
:1001600008EB0348200200010200010902650002B9
:100170000100C0320904000000010100000924014F
:100180000001090001010904010002010300000748
:10019000240100014100062402010100062402029C
:1001A00002000924030103010201000924030204DF
:1001B00001010100090501024000000000052501C0
:1001C000010109058202400000000005250101032C
:1001D000040309044C037700770077002E006400C5
:1001E0006A00740065006300680074006F006F00AF
:1001F0006C0073002E0063006F006D002000700023
:100200006F007700650072006500640020006200E6
:1002100079002000410074006D0065006C00AE00A4
:10022000000018034D006900640069006600690061
:1002300067006800740065007200000011241FBE92
:10024000CFEFD2E0DEBFCDBF11E0A0E0B1E0E2EA47
:10025000F1E202C005900D92A431B107D9F711E087
:10026000A4E1B1E001C01D92A53FB107E1F7A6D31B
:100270000C94CF10C5CE0F93582FE22F8617B8F0ED
:10028000481710F4E02F13C0262F30E0802F90E0A5
:10029000652F70E0621B730B8E1B91090E949610F4
:1002A000642F70E0621B730B0E94A810E60F8E2F64
:1002B0000F910895089581E090E0DCC482E090E021
:1002C000D9C44F925F926F927F928F929F92AF921A
:1002D000BF92CF92DF92EF92FF920F931F93DF9323
:1002E000CF9300D000D0CDB7DEB78091EC01843041
:1002F00009F04FC353C089818F708F30A9F48A8170
:10030000883F51F4809122019091230101969093AE
:1003100023018093220108C08A3F11F08C3F21F411
:1003200010922301109222018A818F709091000116
:100330008917B9F580913901813011F494E505C030
:10034000823011F494E601C094E389818F70282FE4
:1003500030E02830310599F02930310511F58B81D5
:100360002C818432F0F0E82FF0E0892F90E0839622
:100370008E179F07B4F0E25BFE4F208312C08B8183
:10038000843278F0E82FF0E0892F90E083968E1782
:100390009F073CF0E25BFE4F108203C08E010F5FAF
:1003A0001F4F8091CE019091CF01B8010E940110A2
:1003B000882309F0A0CF0E94630B0E94700B8091EC
:1003C0003901823041F1E090DD01EE2021F1C09051
:1003D000DC01D090DF0102E511E0E4E0FE2EE0FE5A
:1003E00010C0C0FE07C08F2D61E0A6D5809101012D
:1003F000F8018083D0FE05C08F2D60E09DD5F80107
:100400001082F3940F5F1F4FF8E0FF1621F0E6947F
:10041000C694D694E4CF8091D001882309F4F4C027
:1004200010921601109215011092180110921701E6
:1004300010921A011092190110921C0110921B01C6
:10044000FF24009115011091160180E00E94810B9C
:10045000080F191F10931601009315010091170141
:100460001091180181E00E94810B080F191F109351
:100470001801009317010091190110911A0182E0EF
:100480000E94810B080F191F10931A010093190184
:1004900000911B0110911C0183E00E94810B080F49
:1004A000191F10931C0100931B01F39424E0F21612
:1004B00041F675E1672E71E0772EF301808191811D
:1004C00096958795969587958193919331E0ED3137
:1004D000F307A1F750EE852E51E0952E3897D40101
:1004E0002D913C911197808191810796821B930BEE
:1004F0000F9710F4318320833296129681E0ED310C
:10050000F80771F742EBC42E41E0D42E14E6F30154
:10051000E080F18033E0F694E7943A95E1F7BE2C61
:10052000F4018081918123E0969587952A95E1F7E2
:10053000A82EE81609F45CC0412E43948E2D8350FA
:100540008A3728F59DEA592E510E8E2D63E04CE72F
:1005500020E00FE790DE682F812F8455D6D4FFE38B
:10056000FE1560F48E2D60E44CE720E009E683DEA2
:10057000682F80931401852DC8D416C08091140172
:10058000882329F010921401852D60E0BED423E069
:100590002B1550F02A15F0F4812F61E0CDD4809115
:1005A0000101F60180831EC0F3E0FA1530F0812FBF
:1005B00060E0C2D4F601108215C0FBE7FB1550F4D1
:1005C000FA1580F0842D61E0B7D480910101F60125
:1005D000818308C0FBE7FA1528F4842D60E0ACD4D1
:1005E000F6011182F30180819181F401918380836E
:1005F00022E030E0620E731E820E931E1E5FC20E5A
:10060000D31E1C3609F083CF86D397D3809139014E
:10061000882389F480902A0190902B01A0902801D2
:10062000B09029011092380160E070E000E010E025
:1006300040E050E042C08130E9F460912A017091BD
:100640002B01009128011091290140912401509122
:1006500025014B0184E0969487948A95E1F758012F
:10066000B4E0B694A794BA95E1F7A4E0CA2EFCE0F2
:100670007F2E26C0823069F060E070E000E010E07C
:1006800040E050E088249924AA24BB24CC24772479
:1006900017C08091DC01682F70E08091DF01082F86
:1006A00010E08091DE01482F50E080902A01909068
:1006B0002B01A0902801B0902901CC24E0E17E2EEE
:1006C000CB018F709070892B31F121E0FF2402C0A3
:1006D000220FF394822F90E086239723892B19F41D
:1006E00034E0F316A9F7209138012F1579F081E055
:1006F00090E0022E02C0880F991F0A94E2F7482367
:100700005923452B19F0822F60E016D48F2D61E01C
:1007100013D4F0923801C8018F709070892B91F03A
:100720002091380181E090E0022E02C0880F991FCD
:100730000A94E2F790E008231923012B19F0822F85
:1007400060E0FAD374018501DD2412C0E0FE04C02C
:100750008C2DACD361E0F0D300FF04C08C2DA6D368
:1007600060E0EAD3F694E79416950795D394C39482
:10077000D71460F360912801709129014091240100
:100780005091250180912A0190912B018DD68530C1
:1007900061F1863060F48230E1F0833018F481300A
:1007A00051F513C08330C9F0843029F51AC0883060
:1007B000B1F0893028F4863051F08730E1F40BC075
:1007C000893089F08A30B9F413C088E00FC088E01E
:1007D00010C089E00BC089E00CC08AE007C08AE045
:1007E00008C08BE003C08BE004C08CE061E002C075
:1007F0008CE060E0A1D38091CE019091CF010E9466
:10080000201080913901882309F500E010E0EE24E2
:10081000FF2441E0C42ED12C9E2D9C5DF701E25BAC
:10082000FE4F84A1882351F0892F35D3F60102C0F1
:10083000EE0FFF1F8A95E2F70E2B1F2B0894E11C89
:10084000F11CF0E1EF16F10439F783C0813009F0B3
:100850003CC08091380101E010E0082E02C0000F7A
:10086000111F0A94E2F790E06CE070E00E9496108D
:1008700034E2D32ED80EED2CFF242BE030E0E20E34
:10088000F31E21E0A22EB12C10C0E25BFE4F80814E
:10089000882351F08D2D21D3F50102C0EE0FFF1FEB
:1008A0008A95E2F70E2B1F2BD394ED2DF0E0EE1678
:1008B000FF065CF780911D01882309F454C08091E4
:1008C000240190912501807F4CC0823019F000E016
:1008D00010E049C020913801213051F0213030F032
:1008E000223041F0233041F090E007C090E205C093
:1008F00090E103C098E001C094E08AB18C638AB9AA
:1009000090959BB9F22EF29490EFF922F4E2FF0E4B
:1009100000E010E0CF2CDD242FE030E0C20ED31E2B
:1009200081E0A82EB12C10C0E25BFE4F80818823AD
:1009300051F08F2DD2D2F50102C0EE0FFF1F8A9524
:10094000E2F70E2B1F2BF394EF2DF0E0CE16DF060F
:100950005CF780911D01882331F0809124019091F2
:100960002501082B192BC80185D180912201909176
:100970002301009739F08830910510F480E003C01E
:10098000489718F481E070D104C0109223011092AE
:1009900022010F900F900F900F90CF91DF911F9138
:1009A0000F91FF90EF90DF90CF90BF90AF909F900E
:1009B0008F907F906F905F904F90089584B7877F5E
:1009C00084BF88E10FB6F8948093600010926000B5
:1009D0000FBE80E090E020E80FB6F894209361000D
:1009E000809361000FBEFED031D182D12BD2AED622
:1009F000C4D280913601882309F421D652D188E9E6
:100A00009AE320E931E0F9013197F1F70197D9F73D
:100A100082D1809124019091250120E989309207AB
:100A200059F485EA95EA26D170D1E0E0F0E3099522
:100A300081E294E81FD1FFCF8130910541F18854C4
:100A4000924139F579D08FEF9FEF14D188EE93E082
:100A500020E931E0F9013197F1F70197D9F780E00A
:100A600090E008D188EE93E020E931E0F901319778
:100A7000F1F70197D9F78FEF9FEFFCD088EE93E065
:100A800020E931E0F9013197F1F70197D9F755D114
:100A900082D44AD7789481E090E0ECD012DC0E94B6
:100AA000EE0FFCCF84E090E0E5D08091CE019091F4
:100AB000CF010E945910882319F488E090E0DAD021
:100AC00080E991E020E931E0F9013197F1F70197F0
:100AD000D9F780E090E0CEC0F999FECF9F7092BD2B
:100AE00081BD60BDF894FA9AF99A78940895F999BD
:100AF000FECF92BD81BDF89A80B5089582E090E066
:100B000060910001E9DF83E090E060910101E4DFA2
:100B100084E090E060911D01DFDF85E090E060916E
:100B20003901DADF86E090E06091DD01D5DF87E012
:100B300090E06091D001D0CF80E090E063E0CCDF26
:100B400081E090E06FEFC8DF82E090E062E0C4DF18
:100B500083E090E06FE7C0DF84E090E061E0BCDF1D
:100B600085E090E060E0B8DF86E090E060E0B4DF30
:100B700087E090E060E0B0DF81E08093360192E0B2
:100B8000909300019FE79093010180931D011092C3
:100B900039011092DD011092D0018FEF9FEF6AD0E2
:100BA00088EE93E020E931E0F9013197F1F7019700
:100BB000D9F780E090E05ED088EE93E020E931E064
:100BC000F9013197F1F70197D9F78FEF9FEF52D0E5
:100BD00088EE93E020E931E0F9013197F1F70197D0
:100BE000D9F7089580E090E082DF833009F0A4DF38
:100BF00081E090E07CDF10923601882319F081E0DB
:100C00008093360182E090E072DF8093000183E000
:100C100090E06DDF8093010184E090E068DF109246
:100C20001D01882319F081E080931D0185E090E08B
:100C30005EDF8093390186E090E059DF8093DD012B
:100C400087E090E054DF8093D001089584B18760FD
:100C500084B9259A2D9A81E58CBD08958EBD0DB479
:100C600007FEFDCF8EB50895882311F0589A089598
:100C700058980895CF93DF93EC01809120019091D3
:100C800021018C179D0751F08D2FE8DF8C2FE6DFB7
:100C9000289A2898D0932101C0932001DF91CF9109
:100CA0000895EF92FF920F931F93CF93DF93C0E0CD
:100CB000D0E081E0E82EF12C00E911E0C7010C2E14
:100CC00002C0880F991F0A94E2F7D4DF88E592E00A
:100CD000F8013197F1F70197D9F72196C031D10585
:100CE00069F7DF91CF911F910F91FF90EF900895D9
:100CF000ADDF109221011092200110921F0110927D
:100D00001E01249A2C98509A0895EEE6F0E0808116
:100D10008E7F80830895EAE3F1E02FEF3FEF81912A
:100D200091912823392381E0EE34F807C1F720930D
:100D3000240130932501C901089540912601509165
:100D400027012091240130912501CA0180959095B9
:100D50008223932390932B0180932A01C9018095CC
:100D600090958423952390932901809328013093B3
:100D700027012093260108951F920F920FB60F921C
:100D800011242F933F934F935F936F937F938F9390
:100D90009F93AF93BF93EF93FF9381EC86BD4798EA
:100DA000479A60E070E08FE090E0E1E0F0E0459885
:100DB000369B03C020E030E009C008979F01082E51
:100DC00002C0220F331F0A94E2F70896349B03C037
:100DD00040E050E007C0AF01082E02C0440F551F8D
:100DE0000A94E2F7242B352B622B732B459A01973B
:100DF00087309105E1F680912C0190E0FC01EE0F27
:100E0000FF1FE65CFE4F7183608301966AE070E02D
:100E10000E94BC1080932C018091DD01882309F091
:100E20003FD4FF91EF91BF91AF919F918F917F91AF
:100E30006F915F914F913F912F910F900FBE0F9047
:100E40001F90189580EA87B988B188B984E1EAE3F0
:100E5000F1E0DF011D928A95E9F785B5846085BDD3
:100E600081EC86BDEEE6F0E080818160808378943D
:100E70001092250110922401109227011092260150
:100E8000109229011092280110922B0110922A0130
:100E90001092380108958452803110F08FEF089538
:100EA000E82FF0E0EC58FF4F84910895E82F9091DF
:100EB0003901913021F0923021F480E103C08CE0BF
:100EC00001C080E0F0E0EC58FF4FE491EC5D6091F0
:100ED00038010E948D108E0F0895E82F80913901FE
:100EE000813021F0823021F480E103C08CE001C028
:100EF00080E0E452609138010E948D10E81BF0E020
:100F0000EC58FF4FE4918E2F08959BE090932D01B4
:100F1000909100019F70906B90932E018F7780933A
:100F20002F016F77609330018091CE019091CF01B6
:100F30006DE271E00C943510282F662311F490E8CF
:100F400001C090E9892F82958F7080932D01809147
:100F500000018F70982B90932E012F7720932F01F3
:100F6000809101018F77809330018091CE01909123
:100F7000CF016DE271E00C94351082E091E0909326
:100F8000CF018093CE0180E8EEE4F1E0DF011D9215
:100F90008A95E9F70895282F982F80E020FD80E8B2
:100FA00091FD806492FD806293FD806194FD886074
:100FB00095FD846096FD826027FD81600895809193
:100FC0000D0190910E018070907820910B0130916D
:100FD0000C012F773070822B932B4CDE80912A01ED
:100FE00090912B018830910519F18930910548F4D1
:100FF00082309105C9F084309105C1F00197F9F470
:1010000011C080329105C1F08132910518F44097EA
:10101000B1F410C080349105A1F08050904879F46B
:1010200081E0089581E009C082E007C083E005C047
:1010300084E003C085E001C086E08093310180E058
:10104000089587E08093310180E008950F931F9306
:10105000CF93DF93EC018881882329F0813031F42C
:1010600040E05CE005C040E050E002C040E05FE0EE
:10107000062F10E080910B0190910C018070907907
:10108000209111013091120120703F70822B932B1F
:1010900020910D0130910E0120233123822B932BBF
:1010A000842B952BE7DD80912A0190912B01082359
:1010B0001923012B19F0109231010EC094FF05C0C5
:1010C0008881833048F48F5F06C097FF05C0888110
:1010D000882311F081508883DF91CF911F910F9168
:1010E000089589E391E060E1B1CF0F931F93CF930F
:1010F000DF93EC018B0188818F774DDF40910B01ED
:1011000050910C01407050792091110130911201E1
:10111000207E3F70422B532B90E034E0880F991FC4
:101120003A95E1F7482B592B80910D0190910E01D2
:1011300080239123842B952B9DDD80912A01909112
:101140002B0108231923012B19F0109231011CC027
:1011500094FF05C088818F37B8F48F5F06C097FF72
:1011600006C08881882381F0815088830DC0807EED
:101170009F70009749F024E0969587952A95E1F7AE
:101180000ADF988198279883DF91CF911F910F9163
:10119000089581E091E062E070E0A7CF0F931F9384
:1011A000CF93DF93EC018B0188818F70F4DE409147
:1011B0000B0150910C014070507920911101309138
:1011C000120120703F70422B532B90E064E0880F97
:1011D000991F6A95E1F7482B592B80910D01909149
:1011E0000E0180239123842B952B44DD80912A01CD
:1011F00090912B0108231923012B19F01092310132
:101200001CC094FF05C088818F30B8F48F5F06C082
:1012100097FF06C08881882381F0815088830DC0A4
:1012200080709F70009749F044E0969587954A95A5
:10123000E1F7B1DE988198279883DF91CF911F91D4
:101240000F91089580E091E061E070E0A7CF0F93E7
:101250001F93CF93DF93EC018B0188819CDE90E09C
:10126000E4E0880F991FEA95E1F720911101309190
:10127000120120703F70822B932B20910D01309131
:101280000E0120233123822B932BF4DC80912A0141
:1012900090912B0108231923012B19F01092310191
:1012A0000DC080709F70009749F074E09695879507
:1012B0007A95E1F770DE988198279883DF91CF9136
:1012C0001F910F91089580ED91E060E470E0BFCF31
:1012D0000F931F93CF93DF938C01EB01FC0180816F
:1012E000882319F440E050E002C040E05FE08091C4
:1012F0000D0190910E018C239D23209111013091BD
:10130000120120703F70822B932B842B952BB2DC23
:1013100080912A0190912B01C823D923CD2B19F05C
:101320001092310109C080709F70892B29F0F8015B
:10133000808191E089278083DF91CF911F910F9168
:1013400008958DE191E068E070E0C2CF0F931F93A4
:10135000082F10E080910D0190910E0180239123C0
:1013600089DC80912A0190912B0108231923012BFC
:1013700011F0109231011F910F9108958091390160
:10138000823011F480E2E2CF8DED91E060E270E016
:101390005ECF84E0DBCF0F931F93CF93DF9380E08A
:1013A00000E010E1CFEFDFEF5FC0B5DCC6DC80917D
:1013B0000F019091100101979093100180930F01FC
:1013C000892B71F41093100100930F0180910D018E
:1013D00090910E018095909590930E0180930D0150
:1013E00020910F0130911001C9018C739070892BED
:1013F00029F4D0930C01C0930B0104C010920C018E
:1014000010920B012C7F3370232B29F4D0931201FF
:10141000C093110104C01092120110921101809129
:1014200031018330B9F0843028F4813079F0823092
:1014300078F40AC0853091F0853070F0863081F004
:10144000873009F0B2CF0EC0BADD0EC0FBDEADCFE3
:10145000A0DEABCF9EDFA9CF74DFA7CF42DEA5CF42
:101460008DDFA3CF30DFA1CF882309F49ECF46DBE9
:10147000DF91CF911F910F910895BC0121E030E0E1
:1014800040E050E00AC0220F331F4F5F5F4F4031F2
:10149000510519F420E030E005C0C90186239723E7
:1014A000892B89F3C9010895EF92FF921F93CF937F
:1014B000DF93DC01009721F46115710509F477C011
:1014C0008FE040305807B9F480913401823099F0B0
:1014D00012E010933401CD01D0DF009719F410927F
:1014E000340106C09093330180933201109334018C
:1014F000109134015DC020913401822F81508530DC
:1015000080F4809132019091330184239523892BBB
:1015100009F04DC010923501122F1B5F109334015A
:1015200047C010913501E12FF0E0EC57FF4FE491F7
:10153000F0E0EE0FFF1FEE0FFF1FE755FF4FC1E07A
:10154000D0E022C0319694913197892F807F8031ED
:1015500011F49D0105C0803211F09A0101C09B0178
:101560009F707E0102C0EE0CFF1C9A95E2F72E21BF
:101570003F21232B39F032969491319684918093B8
:10158000340108C0349620E084918117D9F2209369
:10159000340190E09093350110913401112341F012
:1015A000CD016BDF909333018093320101C010E0D5
:1015B000812FDF91CF911F91FF90EF90089581E0EF
:1015C000089581E00895CF93DF93CFEFDFEFCE0151
:1015D00051DBA1DBB2DB80912A0190912B010097B6
:1015E000B1F380959095C823D923209781F78FEF89
:1015F0009FEF40DB88EE93E020E931E0F90131977D
:10160000F1F70197D9F780E090E034DB88EE93E0C2
:1016100020E931E0F9013197F1F70197D9F78FEF20
:101620009FEF28DB88EE93E020E931E0F901319764
:10163000F1F70197D9F781E0DF91CF910895CF932A
:10164000DF93C1DF882371F0BADF90E0882309F4CB
:1016500091E0992339F4B5DF90E0882309F491E013
:101660009923B9F0C0E9D1E080E090E003DB80EDA0
:1016700097E0FE013197F1F70197D9F78FEF9FEFD0
:10168000F9DA80ED97E0FE013197F1F70197D9F78C
:10169000EBCF81E090E06FEF1FDADF91CF910895FB
:1016A00039B18091370190E0FC01EF52FE4F369541
:1016B00036952FE03227308301966AE070E05CD5E2
:1016C000809337010895E1EDF1E09FEF8191982338
:1016D00081E0EB3DF807D1F79093DE01892F089563
:1016E0002091DB019091DE01822F809589238093E8
:1016F000DC01892F809582238093DF019093DB01A9
:1017000008950F931F93082F28982D9881E090E05B
:10171000A5DA10E00370107024E0000F111F2A9565
:10172000E1F7802F806890E099DA082F80E090E060
:1017300095DA2D9A10E007701070102F002790E0B6
:10174000082B192BC8011F910F9108958AB1837C32
:101750008AB98BB18C638BB9259A2D9A80E0D1DF41
:101760009093E1018093E00181E0CBDF9093E3016E
:101770008093E20182E0C5DF9093E5018093E4016C
:1017800083E0BFDF9093E7018093E6010895DA01DB
:10179000923049F0933061F09130F9F4E9E5F1E0ED
:1017A00022E130E01EC0EBE6F1E025E630E019C0B2
:1017B000813049F0813018F0823079F408C0E0EDD2
:1017C000F1E0849107C0E4EDF1E0849103C0E2E22E
:1017D000F2E08491282F30E004C0E0E0F0E020E067
:1017E00030E0ED93FC93C90108958093E900809166
:1017F000EB0081608093EB001092ED006093EC00B1
:101800004093ED008091EE00881F8827881F08957F
:101810008091ED0188239CF404C08091EC01882321
:10182000B9F08091E80082FFF8CF8091E8008B77D3
:101830008093E80008958091EC01882349F080911D
:10184000E80080FFF8CF8091E8008E778093E80071
:1018500008954091E4005091E50024E68091EC0069
:1018600080FF05C08091E80080FF05C022C0809104
:10187000E80082FD1EC08091EC01882311F482E013
:101880000895853011F483E008958091EB0085FF81
:1018900002C081E008958091E4009091E5008417F2
:1018A0009507E1F2222311F484E008952150AC0160
:1018B000D5CF80E0089541D043D08091D800982FB3
:1018C0009F779093D80080688093D80084E089BD8A
:1018D00089B5826089BD09B400FEFDCF8091D80032
:1018E0008F7D8093D8001092EC011092EA01109243
:1018F000E9011092E80180E060E042E076DF80914B
:10190000E1008E7F8093E1008091E200816080930E
:10191000E2008091E20088608093E2008091E00024
:101920008E7F8093E0000895E3E6F0E080818E7F73
:10193000808381E08093EB01BECF1092E200089596
:101940001092E10008951F920F920FB60F9211248A
:101950002F933F934F935F936F937F938F939F93B7
:10196000AF93BF93EF93FF938091E10080FF1DC081
:101970008091E20080FF19C08091E1008E7F80930A
:10198000E1008091E2008E7F8093E2008091E2008E
:1019900080618093E2008091D80080628093D800BB
:1019A00019BC1092EC010E945B018091E10084FF60
:1019B0002FC08091E20084FF2BC084E089BD89B5EF
:1019C000826089BD09B400FEFDCF8091D8008F7D73
:1019D0008093D8008091E1008F7E8093E100809118
:1019E000E2008F7E8093E2008091E200816080932C
:1019F000E2008091EA01882331F48091E30087FDC1
:101A000002C081E001C084E08093EC010E945E018D
:101A10008091E10083FF22C08091E20083FF1EC01D
:101A20008091E100877F8093E10082E08093EC0168
:101A30001092EA018091E1008E7F8093E100809115
:101A4000E2008E7F8093E2008091E20080618093CB
:101A5000E20080E060E042E0C8DE4AD18091E1002F
:101A600082FF0AC08091E20082FF06C08091E100FF
:101A70008B7F8093E1003CD1FF91EF91BF91AF91BB
:101A80009F918F917F916F915F914F913F912F9196
:101A90000F900FBE0F901F9018950F931F93DF9319
:101AA000CF9300D0CDB7DEB7EDEEF1E08091F1003D
:101AB000819381E0E53FF807C9F78091ED0130910E
:101AC000EE01353009F487C0363040F43130C9F1C9
:101AD000313070F0333009F0F4C033C0383009F4DD
:101AE000C0C0393009F4CFC0363009F0EAC099C01F
:101AF000803821F0823809F0E4C008C09091E801F4
:101B00008091E901882399F0926011C08091F101E0
:101B100087708093E9008091EB0090E025E0969536
:101B200087952A95E1F7982F91701092E90080919E
:101B3000E800877F8093E8009093F1001092F10015
:101B40009BC0882319F0823009F0BBC090E08F71F0
:101B50009070009721F0029709F0B5C00CC08091F9
:101B6000EF01813009F0AFC01092E901333069F51F
:101B70008093E9012AC08091EF01882331F52091FB
:101B8000F101277009F49FC02093E9008091EB00D8
:101B900080FF1BC0333021F48091EB00806213C0C2
:101BA0008091EB0080618093EB0081E090E002C0C7
:101BB000880F991F2A95E2F78093EA001092EA00B5
:101BC0008091EB0088608093EB001092E900809197
:101BD000E800877F54C0882309F073C01091EF019B
:101BE0001F770FB7F8948091E800877F8093E80013
:101BF0000FDE8091E80080FFFCCF112311F482E01A
:101C000001C083E08093EC018091E3008078182B81
:101C10001093E3008091E30080688093E3000FBF9E
:101C200052C08058823008F04CC08091EF019091F2
:101C3000F0016091F101AE014F5F5F4FA8DDBC0183
:101C4000009709F440C08091E800877F8093E80006
:101C500089819A814ED08091E8008B778093E8004B
:101C600032C0803871F58091E800877F8093E8006A
:101C70008091EA018093F1008091E8008E77809353
:101C8000E800C6DD20C08823E1F49091EF01923096
:101C9000D0F48091E800877F8093E8009093EA0178
:101CA000B7DD8091EA01882331F48091E30087FD5C
:101CB00002C081E001C084E08093EC010E945205E3
:101CC00002C00E945A018091E80083FF0AC08091FF
:101CD000EB0080628093EB008091E800877F809327
:101CE000E8000F900F90CF91DF911F910F91089511
:101CF00008959C014091F3015091F4014617570754
:101D000010F460E03FC06115710511F0AB01F9CF2F
:101D10008091E8008E778093E80040E050E0F1CFBA
:101D20008091EC01882309F43FC0853009F43EC05E
:101D30008091E80083FF02C081E008958091E8006F
:101D400082FD2CC08091E80080FF1CC08091F200D1
:101D500090E009C0F9012F5F3F4FE491E093F1005B
:101D60004150504001964115510519F088309105B8
:101D700088F360E0089709F461E08091E8008E77CD
:101D80008093E8004115510559F6662349F606C0CF
:101D90008091EC01882341F0853041F08091E8008A
:101DA00082FFF6CF80E0089582E0089583E00895F1
:101DB000BF92CF92DF92EF92FF920F931F93CF9338
:101DC000DF93D82EC92E8B017A0143DDB82E8823EC
:101DD00009F06CC08D2D9C2D9C01E9018091F200D1
:101DE0000830110508F45FC08770081B11098430A2
:101DF00089F1853038F4823099F1833070F5813083
:101E000039F431C0863001F1863008F18730C9F0ED
:101E10008091E80085FD10C08091E8008B77809369
:101E2000E800E114F10429F0F7010995813009F483
:101E30003FC00FDD8823E9F5085010408091F10084
:101E400089938091F10089938091F1008993809129
:101E5000F10089938091F10089938091F100899339
:101E60008091F10089938091F100899308301105E8
:101E700078F619C08091E80085FD10C08091E800D7
:101E80008B778093E800E114F10421F0F7010995C4
:101E9000813071F0DEDC882331F00BC08091F100DD
:101EA0008993015010400115110521F78B2D01C0B8
:101EB00085E0DF91CF911F910F91FF90EF90DF9020
:101EC000CF90BF900895BF92CF92DF92EF92FF9292
:101ED0000F931F93CF93DF93D82EC92E8B017A01D6
:101EE000B8DCB82E882309F06CC08D2D9C2D9C0188
:101EF000E9018091F2000830110508F45FC0877095
:101F0000081B1109843089F1853038F4823099F149
:101F1000833070F5813039F431C0863001F186307C
:101F200008F18730C9F08091E80085FD10C08091EC
:101F3000E8008E778093E800E114F10429F0F701BE
:101F40000995813009F43FC084DC8823E9F5085005
:101F5000104089918093F10089918093F1008991DB
:101F60008093F10089918093F10089918093F10031
:101F700089918093F10089918093F10089918093F8
:101F8000F1000830110578F619C08091E80085FD50
:101F900010C08091E8008E778093E800E114F1048E
:101FA00021F0F7010995813071F053DC882331F07D
:101FB0000BC089918093F10001501040011511056B
:101FC00021F78B2D01C085E0DF91CF911F910F91FB
:101FD000FF90EF90DF90CF90BF9008951F93809176
:101FE000EC01882361F01091E9001092E9008091E2
:101FF000E80083FF01C051DD17701093E9001F91C5
:102000000895FC018091EC018430C1F485818093B6
:10201000E9008091E80085FF11C0CB0164E070E029
:1020200040E050E0C5DE8091E80085FD05C080916C
:10203000E8008B778093E80081E0089580E00895C0
:10204000FC018091EC01843011F082E008958181DF
:102050008093E9008091F200882331F08091E800BC
:102060008E778093E800F5CB0895FC018091EC0118
:10207000843011F092E01BC081818093E90080914F
:10208000E80085FD02C090E012C0CB0164E070E082
:1020900040E050E018DF982F882349F48091E80051
:1020A00085FD05C08091E8008E778093E800892F38
:1020B00008951F93CF93DF93EC0111E089811817E6
:1020C00029F4EA81FB818C8161E007C08D811817BA
:1020D000E1F4EE81FF81888560E0882311F440E01F
:1020E00001C044E020E088E090E003C02F5F880F4B
:1020F000991F8E179F07D0F3606842602295207F5A
:10210000422B812F72DB882321F01F5F1530B1F63F
:1021100081E0DF91CF911F910895002480FD060E8C
:10212000660F11F08695D1F7802D0895552700246C
:1021300080FF02C0060E571F660F771F61157105DD
:1021400021F096958795009799F7952F802D089502
:10215000AA1BBB1B51E107C0AA1FBB1FA617B707CD
:1021600010F0A61BB70B881F991F5A95A9F78095E9
:102170009095BC01CD01089597FB092E07260AD042
:1021800077FD04D0E5DF06D000201AF47095619544
:102190007F4F0895F6F7909581959F4F0895F89495
:0221A000FFCF6F
:1021A2000E4A010240000001400000FFFFFFFF0055
:0421B20010FFFF001B
:00000001FF
